{
  "_format": "hh-sol-artifact-1",
  "contractName": "Aura",
  "sourceName": "contracts/Aura.sol",
  "abi": [
    {
      "inputs": [
        {
          "internalType": "address",
          "name": "_core",
          "type": "address"
        }
      ],
      "stateMutability": "nonpayable",
      "type": "constructor"
    },
    {
      "inputs": [
        {
          "internalType": "address",
          "name": "spender",
          "type": "address"
        },
        {
          "internalType": "uint256",
          "name": "allowance",
          "type": "uint256"
        },
        {
          "internalType": "uint256",
          "name": "needed",
          "type": "uint256"
        }
      ],
      "name": "ERC20InsufficientAllowance",
      "type": "error"
    },
    {
      "inputs": [
        {
          "internalType": "address",
          "name": "sender",
          "type": "address"
        },
        {
          "internalType": "uint256",
          "name": "balance",
          "type": "uint256"
        },
        {
          "internalType": "uint256",
          "name": "needed",
          "type": "uint256"
        }
      ],
      "name": "ERC20InsufficientBalance",
      "type": "error"
    },
    {
      "inputs": [
        {
          "internalType": "address",
          "name": "approver",
          "type": "address"
        }
      ],
      "name": "ERC20InvalidApprover",
      "type": "error"
    },
    {
      "inputs": [
        {
          "internalType": "address",
          "name": "receiver",
          "type": "address"
        }
      ],
      "name": "ERC20InvalidReceiver",
      "type": "error"
    },
    {
      "inputs": [
        {
          "internalType": "address",
          "name": "sender",
          "type": "address"
        }
      ],
      "name": "ERC20InvalidSender",
      "type": "error"
    },
    {
      "inputs": [
        {
          "internalType": "address",
          "name": "spender",
          "type": "address"
        }
      ],
      "name": "ERC20InvalidSpender",
      "type": "error"
    },
    {
      "inputs": [
        {
          "internalType": "address",
          "name": "caller",
          "type": "address"
        }
      ],
      "name": "NotAuthorized",
      "type": "error"
    },
    {
      "anonymous": false,
      "inputs": [
        {
          "indexed": true,
          "internalType": "address",
          "name": "owner",
          "type": "address"
        },
        {
          "indexed": true,
          "internalType": "address",
          "name": "spender",
          "type": "address"
        },
        {
          "indexed": false,
          "internalType": "uint256",
          "name": "value",
          "type": "uint256"
        }
      ],
      "name": "Approval",
      "type": "event"
    },
    {
      "anonymous": false,
      "inputs": [
        {
          "indexed": true,
          "internalType": "address",
          "name": "from",
          "type": "address"
        },
        {
          "indexed": true,
          "internalType": "address",
          "name": "to",
          "type": "address"
        },
        {
          "indexed": false,
          "internalType": "uint256",
          "name": "value",
          "type": "uint256"
        }
      ],
      "name": "Transfer",
      "type": "event"
    },
    {
      "inputs": [
        {
          "internalType": "address",
          "name": "owner",
          "type": "address"
        },
        {
          "internalType": "address",
          "name": "spender",
          "type": "address"
        }
      ],
      "name": "allowance",
      "outputs": [
        {
          "internalType": "uint256",
          "name": "",
          "type": "uint256"
        }
      ],
      "stateMutability": "view",
      "type": "function"
    },
    {
      "inputs": [
        {
          "internalType": "address",
          "name": "spender",
          "type": "address"
        },
        {
          "internalType": "uint256",
          "name": "value",
          "type": "uint256"
        }
      ],
      "name": "approve",
      "outputs": [
        {
          "internalType": "bool",
          "name": "",
          "type": "bool"
        }
      ],
      "stateMutability": "nonpayable",
      "type": "function"
    },
    {
      "inputs": [
        {
          "internalType": "address",
          "name": "account",
          "type": "address"
        }
      ],
      "name": "balanceOf",
      "outputs": [
        {
          "internalType": "uint256",
          "name": "",
          "type": "uint256"
        }
      ],
      "stateMutability": "view",
      "type": "function"
    },
    {
      "inputs": [],
      "name": "core",
      "outputs": [
        {
          "internalType": "address",
          "name": "",
          "type": "address"
        }
      ],
      "stateMutability": "view",
      "type": "function"
    },
    {
      "inputs": [],
      "name": "decimals",
      "outputs": [
        {
          "internalType": "uint8",
          "name": "",
          "type": "uint8"
        }
      ],
      "stateMutability": "view",
      "type": "function"
    },
    {
      "inputs": [
        {
          "internalType": "address",
          "name": "_receiver",
          "type": "address"
        },
        {
          "internalType": "uint256",
          "name": "_amount",
          "type": "uint256"
        }
      ],
      "name": "mintTokens",
      "outputs": [],
      "stateMutability": "nonpayable",
      "type": "function"
    },
    {
      "inputs": [],
      "name": "name",
      "outputs": [
        {
          "internalType": "string",
          "name": "",
          "type": "string"
        }
      ],
      "stateMutability": "view",
      "type": "function"
    },
    {
      "inputs": [],
      "name": "symbol",
      "outputs": [
        {
          "internalType": "string",
          "name": "",
          "type": "string"
        }
      ],
      "stateMutability": "view",
      "type": "function"
    },
    {
      "inputs": [],
      "name": "totalSupply",
      "outputs": [
        {
          "internalType": "uint256",
          "name": "",
          "type": "uint256"
        }
      ],
      "stateMutability": "view",
      "type": "function"
    },
    {
      "inputs": [
        {
          "internalType": "address",
          "name": "to",
          "type": "address"
        },
        {
          "internalType": "uint256",
          "name": "value",
          "type": "uint256"
        }
      ],
      "name": "transfer",
      "outputs": [
        {
          "internalType": "bool",
          "name": "",
          "type": "bool"
        }
      ],
      "stateMutability": "nonpayable",
      "type": "function"
    },
    {
      "inputs": [
        {
          "internalType": "address",
          "name": "from",
          "type": "address"
        },
        {
          "internalType": "address",
          "name": "to",
          "type": "address"
        },
        {
          "internalType": "uint256",
          "name": "value",
          "type": "uint256"
        }
      ],
      "name": "transferFrom",
      "outputs": [
        {
          "internalType": "bool",
          "name": "",
          "type": "bool"
        }
      ],
      "stateMutability": "nonpayable",
      "type": "function"
    }
  ],
  "bytecode": "0x608060405234801561001057600080fd5b5060405162000aea38038062000aea833981016040819052610031916100af565b604051806040016040528060048152602001634175726160e01b8152506040518060400160405280600381526020016220aaa960e91b8152508160039081610079919061017e565b506004610086828261017e565b5050600580546001600160a01b0319166001600160a01b0393909316929092179091555061023d565b6000602082840312156100c157600080fd5b81516001600160a01b03811681146100d857600080fd5b9392505050565b634e487b7160e01b600052604160045260246000fd5b600181811c9082168061010957607f821691505b60208210810361012957634e487b7160e01b600052602260045260246000fd5b50919050565b601f82111561017957600081815260208120601f850160051c810160208610156101565750805b601f850160051c820191505b8181101561017557828155600101610162565b5050505b505050565b81516001600160401b03811115610197576101976100df565b6101ab816101a584546100f5565b8461012f565b602080601f8311600181146101e057600084156101c85750858301515b600019600386901b1c1916600185901b178555610175565b600085815260208120601f198616915b8281101561020f578886015182559484019460019091019084016101f0565b508582101561022d5787850151600019600388901b60f8161c191681555b5050505050600190811b01905550565b61089d806200024d6000396000f3fe608060405234801561001057600080fd5b50600436106100c95760003560e01c806370a0823111610081578063dd62ed3e1161005b578063dd62ed3e14610187578063f0dda65c146101c0578063f2f4eb26146101d557600080fd5b806370a082311461014357806395d89b411461016c578063a9059cbb1461017457600080fd5b806318160ddd116100b257806318160ddd1461010f57806323b872dd14610121578063313ce5671461013457600080fd5b806306fdde03146100ce578063095ea7b3146100ec575b600080fd5b6100d6610200565b6040516100e391906106e7565b60405180910390f35b6100ff6100fa366004610751565b610292565b60405190151581526020016100e3565b6002545b6040519081526020016100e3565b6100ff61012f36600461077b565b6102ac565b604051601281526020016100e3565b6101136101513660046107b7565b6001600160a01b031660009081526020819052604090205490565b6100d66102d0565b6100ff610182366004610751565b6102df565b6101136101953660046107d9565b6001600160a01b03918216600090815260016020908152604080832093909416825291909152205490565b6101d36101ce366004610751565b6102ed565b005b6005546101e8906001600160a01b031681565b6040516001600160a01b0390911681526020016100e3565b60606003805461020f9061080c565b80601f016020809104026020016040519081016040528092919081815260200182805461023b9061080c565b80156102885780601f1061025d57610100808354040283529160200191610288565b820191906000526020600020905b81548152906001019060200180831161026b57829003601f168201915b5050505050905090565b6000336102a0818585610346565b60019150505b92915050565b6000336102ba858285610358565b6102c58585856103ef565b506001949350505050565b60606004805461020f9061080c565b6000336102a08185856103ef565b6005546001600160a01b03163314610338576040517f4a0bfec10000000000000000000000000000000000000000000000000000000081523360048201526024015b60405180910390fd5b6103428282610467565b5050565b610353838383600161049d565b505050565b6001600160a01b0383811660009081526001602090815260408083209386168352929052205460001981146103e957818110156103da576040517ffb8f41b20000000000000000000000000000000000000000000000000000000081526001600160a01b0384166004820152602481018290526044810183905260640161032f565b6103e98484848403600061049d565b50505050565b6001600160a01b038316610432576040517f96c6fd1e0000000000000000000000000000000000000000000000000000000081526000600482015260240161032f565b6001600160a01b03821661045c5760405163ec442f0560e01b81526000600482015260240161032f565b6103538383836105a4565b6001600160a01b0382166104915760405163ec442f0560e01b81526000600482015260240161032f565b610342600083836105a4565b6001600160a01b0384166104e0576040517fe602df050000000000000000000000000000000000000000000000000000000081526000600482015260240161032f565b6001600160a01b038316610523576040517f94280d620000000000000000000000000000000000000000000000000000000081526000600482015260240161032f565b6001600160a01b03808516600090815260016020908152604080832093871683529290522082905580156103e957826001600160a01b0316846001600160a01b03167f8c5be1e5ebec7d5bd14f71427d1e84f3dd0314c0f7b2291e5b200ac8c7c3b9258460405161059691815260200190565b60405180910390a350505050565b6001600160a01b0383166105cf5780600260008282546105c49190610846565b9091555061065a9050565b6001600160a01b0383166000908152602081905260409020548181101561063b576040517fe450d38c0000000000000000000000000000000000000000000000000000000081526001600160a01b0385166004820152602481018290526044810183905260640161032f565b6001600160a01b03841660009081526020819052604090209082900390555b6001600160a01b03821661067657600280548290039055610695565b6001600160a01b03821660009081526020819052604090208054820190555b816001600160a01b0316836001600160a01b03167fddf252ad1be2c89b69c2b068fc378daa952ba7f163c4a11628f55a4df523b3ef836040516106da91815260200190565b60405180910390a3505050565b600060208083528351808285015260005b81811015610714578581018301518582016040015282016106f8565b506000604082860101526040601f19601f8301168501019250505092915050565b80356001600160a01b038116811461074c57600080fd5b919050565b6000806040838503121561076457600080fd5b61076d83610735565b946020939093013593505050565b60008060006060848603121561079057600080fd5b61079984610735565b92506107a760208501610735565b9150604084013590509250925092565b6000602082840312156107c957600080fd5b6107d282610735565b9392505050565b600080604083850312156107ec57600080fd5b6107f583610735565b915061080360208401610735565b90509250929050565b600181811c9082168061082057607f821691505b60208210810361084057634e487b7160e01b600052602260045260246000fd5b50919050565b808201808211156102a657634e487b7160e01b600052601160045260246000fdfea264697066735822122065b98efe4636a9ff1071cad3c9fbe52cb066fac7cbb8b502479dea53033bc09f64736f6c63430008140033",
  "linkReferences": {},
  "deployedLinkReferences": {}
}