{
  "_format": "hh-sol-artifact-1",
  "contractName": "Memecast",
  "sourceName": "contracts/Memecast.sol",
  "abi": [
    {
      "inputs": [],
      "stateMutability": "nonpayable",
      "type": "constructor"
    },
    {
      "inputs": [
        {
          "internalType": "uint256",
          "name": "_memeCategoryId",
          "type": "uint256"
        }
      ],
      "name": "MemeCategoryDoesNotExist",
      "type": "error"
    },
    {
      "inputs": [
        {
          "internalType": "address",
          "name": "caller",
          "type": "address"
        }
      ],
      "name": "NotAuthorized",
      "type": "error"
    },
    {
      "inputs": [
        {
          "internalType": "uint256",
          "name": "templateId",
          "type": "uint256"
        }
      ],
      "name": "TemplateDoesNotExist",
      "type": "error"
    },
    {
      "anonymous": false,
      "inputs": [
        {
          "indexed": false,
          "internalType": "address",
          "name": "receiver",
          "type": "address"
        },
        {
          "indexed": false,
          "internalType": "uint256",
          "name": "amount",
          "type": "uint256"
        }
      ],
      "name": "AuraClaimed",
      "type": "event"
    },
    {
      "anonymous": false,
      "inputs": [
        {
          "components": [
            {
              "internalType": "uint256",
              "name": "_memeCategoryId",
              "type": "uint256"
            },
            {
              "internalType": "string",
              "name": "name",
              "type": "string"
            },
            {
              "internalType": "string",
              "name": "symbol",
              "type": "string"
            },
            {
              "internalType": "string",
              "name": "metadata",
              "type": "string"
            },
            {
              "internalType": "address",
              "name": "proposedBy",
              "type": "address"
            },
            {
              "internalType": "address",
              "name": "memeTokenAddress",
              "type": "address"
            }
          ],
          "indexed": false,
          "internalType": "struct Memecast.MemeCategory",
          "name": "memeCategory",
          "type": "tuple"
        }
      ],
      "name": "MemeCategoryCreated",
      "type": "event"
    },
    {
      "anonymous": false,
      "inputs": [
        {
          "components": [
            {
              "internalType": "uint256",
              "name": "memeId",
              "type": "uint256"
            },
            {
              "internalType": "uint256",
              "name": "_memeCategoryId",
              "type": "uint256"
            },
            {
              "internalType": "uint256",
              "name": "templateId",
              "type": "uint256"
            },
            {
              "internalType": "string",
              "name": "metadata",
              "type": "string"
            },
            {
              "internalType": "address",
              "name": "creator",
              "type": "address"
            }
          ],
          "indexed": false,
          "internalType": "struct Memecast.Meme",
          "name": "meme",
          "type": "tuple"
        }
      ],
      "name": "MemeCreated",
      "type": "event"
    },
    {
      "anonymous": false,
      "inputs": [
        {
          "indexed": false,
          "internalType": "address",
          "name": "receiver",
          "type": "address"
        },
        {
          "indexed": false,
          "internalType": "uint256",
          "name": "categoryId",
          "type": "uint256"
        },
        {
          "indexed": false,
          "internalType": "uint256",
          "name": "amount",
          "type": "uint256"
        }
      ],
      "name": "MemeTokensClaimed",
      "type": "event"
    },
    {
      "anonymous": false,
      "inputs": [
        {
          "components": [
            {
              "internalType": "uint256",
              "name": "templateId",
              "type": "uint256"
            },
            {
              "internalType": "uint256",
              "name": "_memeCategoryId",
              "type": "uint256"
            },
            {
              "internalType": "string",
              "name": "metadata",
              "type": "string"
            },
            {
              "internalType": "address",
              "name": "creator",
              "type": "address"
            }
          ],
          "indexed": false,
          "internalType": "struct Memecast.Template",
          "name": "template",
          "type": "tuple"
        }
      ],
      "name": "TemplateCreated",
      "type": "event"
    },
    {
      "inputs": [
        {
          "internalType": "address",
          "name": "_receiver",
          "type": "address"
        },
        {
          "internalType": "uint256[]",
          "name": "_memeCategoryId",
          "type": "uint256[]"
        },
        {
          "internalType": "uint256[]",
          "name": "_tokenAmount",
          "type": "uint256[]"
        }
      ],
      "name": "_claimAuraAndMemeTokens",
      "outputs": [],
      "stateMutability": "nonpayable",
      "type": "function"
    },
    {
      "inputs": [],
      "name": "aura",
      "outputs": [
        {
          "internalType": "address",
          "name": "",
          "type": "address"
        }
      ],
      "stateMutability": "view",
      "type": "function"
    },
    {
      "inputs": [
        {
          "internalType": "uint256",
          "name": "",
          "type": "uint256"
        }
      ],
      "name": "categories",
      "outputs": [
        {
          "internalType": "uint256",
          "name": "_memeCategoryId",
          "type": "uint256"
        },
        {
          "internalType": "string",
          "name": "name",
          "type": "string"
        },
        {
          "internalType": "string",
          "name": "symbol",
          "type": "string"
        },
        {
          "internalType": "string",
          "name": "metadata",
          "type": "string"
        },
        {
          "internalType": "address",
          "name": "proposedBy",
          "type": "address"
        },
        {
          "internalType": "address",
          "name": "memeTokenAddress",
          "type": "address"
        }
      ],
      "stateMutability": "view",
      "type": "function"
    },
    {
      "inputs": [],
      "name": "categoriesCounter",
      "outputs": [
        {
          "internalType": "uint256",
          "name": "",
          "type": "uint256"
        }
      ],
      "stateMutability": "view",
      "type": "function"
    },
    {
      "inputs": [
        {
          "internalType": "uint256",
          "name": "templateId",
          "type": "uint256"
        },
        {
          "internalType": "uint256",
          "name": "_memeCategoryId",
          "type": "uint256"
        },
        {
          "internalType": "string",
          "name": "metadata",
          "type": "string"
        }
      ],
      "name": "createMeme",
      "outputs": [],
      "stateMutability": "nonpayable",
      "type": "function"
    },
    {
      "inputs": [
        {
          "internalType": "string",
          "name": "name",
          "type": "string"
        },
        {
          "internalType": "string",
          "name": "symbol",
          "type": "string"
        },
        {
          "internalType": "string",
          "name": "metadata",
          "type": "string"
        }
      ],
      "name": "createMemeCategory",
      "outputs": [],
      "stateMutability": "nonpayable",
      "type": "function"
    },
    {
      "inputs": [
        {
          "internalType": "uint256",
          "name": "_memeCategoryId",
          "type": "uint256"
        },
        {
          "internalType": "string",
          "name": "metadata",
          "type": "string"
        }
      ],
      "name": "createTemplate",
      "outputs": [],
      "stateMutability": "nonpayable",
      "type": "function"
    },
    {
      "inputs": [
        {
          "internalType": "address",
          "name": "_user",
          "type": "address"
        }
      ],
      "name": "getAuraBalance",
      "outputs": [
        {
          "internalType": "uint256",
          "name": "",
          "type": "uint256"
        }
      ],
      "stateMutability": "view",
      "type": "function"
    },
    {
      "inputs": [
        {
          "internalType": "address",
          "name": "_user",
          "type": "address"
        },
        {
          "internalType": "uint256",
          "name": "_memeCategoryId",
          "type": "uint256"
        }
      ],
      "name": "memeTokenBalance",
      "outputs": [
        {
          "internalType": "uint256",
          "name": "",
          "type": "uint256"
        }
      ],
      "stateMutability": "view",
      "type": "function"
    },
    {
      "inputs": [
        {
          "internalType": "uint256",
          "name": "",
          "type": "uint256"
        }
      ],
      "name": "memes",
      "outputs": [
        {
          "internalType": "uint256",
          "name": "memeId",
          "type": "uint256"
        },
        {
          "internalType": "uint256",
          "name": "_memeCategoryId",
          "type": "uint256"
        },
        {
          "internalType": "uint256",
          "name": "templateId",
          "type": "uint256"
        },
        {
          "internalType": "string",
          "name": "metadata",
          "type": "string"
        },
        {
          "internalType": "address",
          "name": "creator",
          "type": "address"
        }
      ],
      "stateMutability": "view",
      "type": "function"
    },
    {
      "inputs": [],
      "name": "memesCounter",
      "outputs": [
        {
          "internalType": "uint256",
          "name": "",
          "type": "uint256"
        }
      ],
      "stateMutability": "view",
      "type": "function"
    },
    {
      "inputs": [],
      "name": "owner",
      "outputs": [
        {
          "internalType": "address",
          "name": "",
          "type": "address"
        }
      ],
      "stateMutability": "view",
      "type": "function"
    },
    {
      "inputs": [
        {
          "internalType": "address",
          "name": "_auraContract",
          "type": "address"
        }
      ],
      "name": "setAuraContract",
      "outputs": [],
      "stateMutability": "nonpayable",
      "type": "function"
    },
    {
      "inputs": [
        {
          "internalType": "uint256",
          "name": "",
          "type": "uint256"
        }
      ],
      "name": "templates",
      "outputs": [
        {
          "internalType": "uint256",
          "name": "templateId",
          "type": "uint256"
        },
        {
          "internalType": "uint256",
          "name": "_memeCategoryId",
          "type": "uint256"
        },
        {
          "internalType": "string",
          "name": "metadata",
          "type": "string"
        },
        {
          "internalType": "address",
          "name": "creator",
          "type": "address"
        }
      ],
      "stateMutability": "view",
      "type": "function"
    },
    {
      "inputs": [],
      "name": "templatesCounter",
      "outputs": [
        {
          "internalType": "uint256",
          "name": "",
          "type": "uint256"
        }
      ],
      "stateMutability": "view",
      "type": "function"
    }
  ],
  "bytecode": "0x608060405234801561001057600080fd5b50600080546001600160a01b03191633178155600481905560058190556006556123a78061003f6000396000f3fe60806040523480156200001157600080fd5b5060043610620001095760003560e01c806388680fa711620000a3578063cd40b5c6116200006e578063cd40b5c61462000262578063e13b7f5c146200026c578063e7917a3a1462000280578063f85b6b4a146200029757600080fd5b806388680fa714620001ca5780638da5cb5b14620001e1578063bc525652146200020e578063c6cdbe5e146200023757600080fd5b8063388f606411620000e4578063388f6064146200015b578063427fa20a14620001855780637bc5b3fe146200019c57806386b5980a14620001b357600080fd5b8063092d80e4146200010e57806311089afa1462000127578063286d5ac6146200013e575b600080fd5b620001256200011f36600462000f73565b620002a1565b005b620001256200013836600462001067565b620005ac565b6200014860055481565b6040519081526020015b60405180910390f35b620001726200016c366004620010ef565b62000735565b6040516200015295949392919062001151565b620001486200019636600462001193565b62000804565b62000125620001ad366004620011b8565b6200087c565b62000125620001c436600462001202565b620009be565b62000125620001db36600462001193565b62000ad8565b600054620001f5906001600160a01b031681565b6040516001600160a01b03909116815260200162000152565b620002256200021f366004620010ef565b62000b36565b6040516200015294939291906200124d565b6200024e62000248366004620010ef565b62000bfa565b604051620001529695949392919062001288565b6200014860065481565b600754620001f5906001600160a01b031681565b6200014862000291366004620012f4565b62000deb565b6200014860045481565b6000546001600160a01b03163314620002d457604051634a0bfec160e01b81523360048201526024015b60405180910390fd5b6000805b8351811015620004e157600454848281518110620002fa57620002fa62001321565b60200260200101511062000342578381815181106200031d576200031d62001321565b6020026020010151604051633712019360e21b8152600401620002cb91815260200190565b600160008583815181106200035b576200035b62001321565b6020026020010151815260200190815260200160002060050160009054906101000a90046001600160a01b03166001600160a01b031663f40d71f186858481518110620003ac57620003ac62001321565b60200260200101516040518363ffffffff1660e01b8152600401620003e69291906001600160a01b03929092168252602082015260400190565b600060405180830381600087803b1580156200040157600080fd5b505af115801562000416573d6000803e3d6000fd5b505050508281815181106200042f576200042f62001321565b6020026020010151826200044491906200134d565b91507f036c8fbd2dfe697c19d0a54ccbf2e10129a766af271f56c8e2f04527200aea8b858583815181106200047d576200047d62001321565b60200260200101518584815181106200049a576200049a62001321565b602090810291909101810151604080516001600160a01b0390951685529184019290925282015260600160405180910390a180620004d88162001363565b915050620002d8565b506007546040517ff40d71f10000000000000000000000000000000000000000000000000000000081526001600160a01b038681166004830152602482018490529091169063f40d71f190604401600060405180830381600087803b1580156200054a57600080fd5b505af11580156200055f573d6000803e3d6000fd5b5050604080516001600160a01b0388168152602081018590527f852d8124ce3f27988d222a44771f2232f3c998e62e11218bef44ef38724638fe935001905060405180910390a150505050565b6000838383604051620005bf9062000e75565b620005cd939291906200137f565b604051809103906000f080158015620005ea573d6000803e3d6000fd5b506040805160c0810182526004548082526020808301898152838501899052606084018890523360808501526001600160a01b03861660a08501526000928352600191829052939091208251815592519394509092908201906200064f908262001457565b506040820151600282019062000666908262001457565b50606082015160038201906200067d908262001457565b506080820151600480830180546001600160a01b0393841673ffffffffffffffffffffffffffffffffffffffff199182161790915560a090940151600590930180549390921692909316919091179055546000908152600160205260409081902090517f22965bd683654396cdc8409f8316e36e3dd90cedb9c3ca5ad74c90e40d3afe4e916200070d91620015a9565b60405180910390a16001600460008282546200072a91906200134d565b909155505050505050565b60036020528060005260406000206000915090508060000154908060010154908060020154908060030180546200076c90620013c8565b80601f01602080910402602001604051908101604052809291908181526020018280546200079a90620013c8565b8015620007eb5780601f10620007bf57610100808354040283529160200191620007eb565b820191906000526020600020905b815481529060010190602001808311620007cd57829003601f168201915b505050600490930154919250506001600160a01b031685565b6007546040516370a0823160e01b81526001600160a01b03838116600483015260009216906370a0823190602401602060405180830381865afa15801562000850573d6000803e3d6000fd5b505050506040513d601f19601f8201168201806040525081019062000876919062001634565b92915050565b6005548310620008bc576040517fb0a61cde00000000000000000000000000000000000000000000000000000000815260048101839052602401620002cb565b6040805160a081018252600654808252602080830186815283850188815260608501878152336080870152600094855260039384905295909320845181559051600182015591516002830155925191929091908201906200091e908262001457565b50608091909101516004909101805473ffffffffffffffffffffffffffffffffffffffff19166001600160a01b039092169190911790556006546000908152600360205260409081902090517f0148a2aec4b3ec359393a862c83af410496dd155a0573e8d2758064d0d40eff39162000997916200164e565b60405180910390a1600160066000828254620009b491906200134d565b9091555050505050565b6004548210620009e557604051633712019360e21b815260048101839052602401620002cb565b60408051608081018252600554808252602080830186815283850186815233606086015260009384526002928390529490922083518155915160018301559251919290919082019062000a39908262001457565b50606091909101516003909101805473ffffffffffffffffffffffffffffffffffffffff19166001600160a01b039092169190911790556005546000908152600260205260409081902090517f202884a916fb9ebb5293eaa4e647deb95f04557e8b3d7d3c76e466fce2d42ab29162000ab291620016a5565b60405180910390a160016005600082825462000acf91906200134d565b90915550505050565b6000546001600160a01b0316331462000b0757604051634a0bfec160e01b8152336004820152602401620002cb565b6007805473ffffffffffffffffffffffffffffffffffffffff19166001600160a01b0392909216919091179055565b60026020819052600091825260409091208054600182015492820180549193929162000b6290620013c8565b80601f016020809104026020016040519081016040528092919081815260200182805462000b9090620013c8565b801562000be15780601f1062000bb55761010080835404028352916020019162000be1565b820191906000526020600020905b81548152906001019060200180831162000bc357829003601f168201915b505050600390930154919250506001600160a01b031684565b60016020819052600091825260409091208054918101805462000c1d90620013c8565b80601f016020809104026020016040519081016040528092919081815260200182805462000c4b90620013c8565b801562000c9c5780601f1062000c705761010080835404028352916020019162000c9c565b820191906000526020600020905b81548152906001019060200180831162000c7e57829003601f168201915b50505050509080600201805462000cb390620013c8565b80601f016020809104026020016040519081016040528092919081815260200182805462000ce190620013c8565b801562000d325780601f1062000d065761010080835404028352916020019162000d32565b820191906000526020600020905b81548152906001019060200180831162000d1457829003601f168201915b50505050509080600301805462000d4990620013c8565b80601f016020809104026020016040519081016040528092919081815260200182805462000d7790620013c8565b801562000dc85780601f1062000d9c5761010080835404028352916020019162000dc8565b820191906000526020600020905b81548152906001019060200180831162000daa57829003601f168201915b50505050600483015460059093015491926001600160a01b039081169216905086565b6000818152600160205260408082206005015490516370a0823160e01b81526001600160a01b0385811660048301529091169081906370a0823190602401602060405180830381865afa15801562000e47573d6000803e3d6000fd5b505050506040513d601f19601f8201168201806040525081019062000e6d919062001634565b949350505050565b610c7f80620016f383390190565b80356001600160a01b038116811462000e9b57600080fd5b919050565b634e487b7160e01b600052604160045260246000fd5b604051601f8201601f1916810167ffffffffffffffff8111828210171562000ee25762000ee262000ea0565b604052919050565b600082601f83011262000efc57600080fd5b8135602067ffffffffffffffff82111562000f1b5762000f1b62000ea0565b8160051b62000f2c82820162000eb6565b928352848101820192828101908785111562000f4757600080fd5b83870192505b8483101562000f685782358252918301919083019062000f4d565b979650505050505050565b60008060006060848603121562000f8957600080fd5b62000f948462000e83565b9250602084013567ffffffffffffffff8082111562000fb257600080fd5b62000fc08783880162000eea565b9350604086013591508082111562000fd757600080fd5b5062000fe68682870162000eea565b9150509250925092565b600082601f8301126200100257600080fd5b813567ffffffffffffffff8111156200101f576200101f62000ea0565b62001034601f8201601f191660200162000eb6565b8181528460208386010111156200104a57600080fd5b816020850160208301376000918101602001919091529392505050565b6000806000606084860312156200107d57600080fd5b833567ffffffffffffffff808211156200109657600080fd5b620010a48783880162000ff0565b94506020860135915080821115620010bb57600080fd5b620010c98783880162000ff0565b93506040860135915080821115620010e057600080fd5b5062000fe68682870162000ff0565b6000602082840312156200110257600080fd5b5035919050565b6000815180845260005b81811015620011315760208185018101518683018201520162001113565b506000602082860101526020601f19601f83011685010191505092915050565b85815284602082015283604082015260a0606082015260006200117860a083018562001109565b90506001600160a01b03831660808301529695505050505050565b600060208284031215620011a657600080fd5b620011b18262000e83565b9392505050565b600080600060608486031215620011ce57600080fd5b8335925060208401359150604084013567ffffffffffffffff811115620011f457600080fd5b62000fe68682870162000ff0565b600080604083850312156200121657600080fd5b82359150602083013567ffffffffffffffff8111156200123557600080fd5b620012438582860162000ff0565b9150509250929050565b8481528360208201526080604082015260006200126e608083018562001109565b90506001600160a01b038316606083015295945050505050565b86815260c060208201526000620012a360c083018862001109565b8281036040840152620012b7818862001109565b90508281036060840152620012cd818762001109565b9150506001600160a01b03808516608084015280841660a084015250979650505050505050565b600080604083850312156200130857600080fd5b620013138362000e83565b946020939093013593505050565b634e487b7160e01b600052603260045260246000fd5b634e487b7160e01b600052601160045260246000fd5b8082018082111562000876576200087662001337565b60006001820162001378576200137862001337565b5060010190565b60608152600062001394606083018662001109565b8281036020840152620013a8818662001109565b90508281036040840152620013be818562001109565b9695505050505050565b600181811c90821680620013dd57607f821691505b602082108103620013fe57634e487b7160e01b600052602260045260246000fd5b50919050565b601f8211156200145257600081815260208120601f850160051c810160208610156200142d5750805b601f850160051c820191505b818110156200144e5782815560010162001439565b5050505b505050565b815167ffffffffffffffff81111562001474576200147462000ea0565b6200148c81620014858454620013c8565b8462001404565b602080601f831160018114620014c45760008415620014ab5750858301515b600019600386901b1c1916600185901b1785556200144e565b600085815260208120601f198616915b82811015620014f557888601518255948401946001909101908401620014d4565b5085821015620015145787850151600019600388901b60f8161c191681555b5050505050600190811b01905550565b600081546200153381620013c8565b8085526020600183811680156200155357600181146200156e576200159e565b60ff1985168884015283151560051b8801830195506200159e565b866000528260002060005b85811015620015965781548a820186015290830190840162001579565b890184019650505b505050505092915050565b602081528154602082015260c060408201526000620015cf60e083016001850162001524565b601f1980848303016060850152620015eb826002870162001524565b9150808483030160808501525062001607816003860162001524565b90506001600160a01b038060048601541660a08501528060058601541660c0850152508091505092915050565b6000602082840312156200164757600080fd5b5051919050565b6020815281546020820152600182015460408201526002820154606082015260a0608082015260006200168860c083016003850162001524565b6001600160a01b0360048501541660a08401528091505092915050565b602081528154602082015260018201546040820152608060608201526000620016d560a083016002850162001524565b6001600160a01b036003850154166080840152809150509291505056fe60806040523480156200001157600080fd5b5060405162000c7f38038062000c7f833981016040819052620000349162000145565b8282600362000044838262000265565b50600462000053828262000265565b5050600580546001600160a01b0319163317905550600662000076828262000265565b5050505062000331565b634e487b7160e01b600052604160045260246000fd5b600082601f830112620000a857600080fd5b81516001600160401b0380821115620000c557620000c562000080565b604051601f8301601f19908116603f01168101908282118183101715620000f057620000f062000080565b816040528381526020925086838588010111156200010d57600080fd5b600091505b8382101562000131578582018301518183018401529082019062000112565b600093810190920192909252949350505050565b6000806000606084860312156200015b57600080fd5b83516001600160401b03808211156200017357600080fd5b620001818783880162000096565b945060208601519150808211156200019857600080fd5b620001a68783880162000096565b93506040860151915080821115620001bd57600080fd5b50620001cc8682870162000096565b9150509250925092565b600181811c90821680620001eb57607f821691505b6020821081036200020c57634e487b7160e01b600052602260045260246000fd5b50919050565b601f8211156200026057600081815260208120601f850160051c810160208610156200023b5750805b601f850160051c820191505b818110156200025c5782815560010162000247565b5050505b505050565b81516001600160401b0381111562000281576200028162000080565b6200029981620002928454620001d6565b8462000212565b602080601f831160018114620002d15760008415620002b85750858301515b600019600386901b1c1916600185901b1785556200025c565b600085815260208120601f198616915b828110156200030257888601518255948401946001909101908401620002e1565b5085821015620003215787850151600019600388901b60f8161c191681555b5050505050600190811b01905550565b61093e80620003416000396000f3fe608060405234801561001057600080fd5b50600436106100d45760003560e01c806370a0823111610081578063dd62ed3e1161005b578063dd62ed3e1461019a578063f0dda65c146101d3578063f2f4eb26146101e857600080fd5b806370a082311461015657806395d89b411461017f578063a9059cbb1461018757600080fd5b806323b872dd116100b257806323b872dd1461012c578063313ce5671461013f578063392f37e91461014e57600080fd5b806306fdde03146100d9578063095ea7b3146100f757806318160ddd1461011a575b600080fd5b6100e1610213565b6040516100ee9190610788565b60405180910390f35b61010a6101053660046107f2565b6102a5565b60405190151581526020016100ee565b6002545b6040519081526020016100ee565b61010a61013a36600461081c565b6102bf565b604051601281526020016100ee565b6100e16102e3565b61011e610164366004610858565b6001600160a01b031660009081526020819052604090205490565b6100e1610371565b61010a6101953660046107f2565b610380565b61011e6101a836600461087a565b6001600160a01b03918216600090815260016020908152604080832093909416825291909152205490565b6101e66101e13660046107f2565b61038e565b005b6005546101fb906001600160a01b031681565b6040516001600160a01b0390911681526020016100ee565b606060038054610222906108ad565b80601f016020809104026020016040519081016040528092919081815260200182805461024e906108ad565b801561029b5780601f106102705761010080835404028352916020019161029b565b820191906000526020600020905b81548152906001019060200180831161027e57829003601f168201915b5050505050905090565b6000336102b38185856103e7565b60019150505b92915050565b6000336102cd8582856103f9565b6102d8858585610490565b506001949350505050565b600680546102f0906108ad565b80601f016020809104026020016040519081016040528092919081815260200182805461031c906108ad565b80156103695780601f1061033e57610100808354040283529160200191610369565b820191906000526020600020905b81548152906001019060200180831161034c57829003601f168201915b505050505081565b606060048054610222906108ad565b6000336102b3818585610490565b6005546001600160a01b031633146103d9576040517f4a0bfec10000000000000000000000000000000000000000000000000000000081523360048201526024015b60405180910390fd5b6103e38282610508565b5050565b6103f4838383600161053e565b505050565b6001600160a01b03838116600090815260016020908152604080832093861683529290522054600019811461048a578181101561047b576040517ffb8f41b20000000000000000000000000000000000000000000000000000000081526001600160a01b038416600482015260248101829052604481018390526064016103d0565b61048a8484848403600061053e565b50505050565b6001600160a01b0383166104d3576040517f96c6fd1e000000000000000000000000000000000000000000000000000000008152600060048201526024016103d0565b6001600160a01b0382166104fd5760405163ec442f0560e01b8152600060048201526024016103d0565b6103f4838383610645565b6001600160a01b0382166105325760405163ec442f0560e01b8152600060048201526024016103d0565b6103e360008383610645565b6001600160a01b038416610581576040517fe602df05000000000000000000000000000000000000000000000000000000008152600060048201526024016103d0565b6001600160a01b0383166105c4576040517f94280d62000000000000000000000000000000000000000000000000000000008152600060048201526024016103d0565b6001600160a01b038085166000908152600160209081526040808320938716835292905220829055801561048a57826001600160a01b0316846001600160a01b03167f8c5be1e5ebec7d5bd14f71427d1e84f3dd0314c0f7b2291e5b200ac8c7c3b9258460405161063791815260200190565b60405180910390a350505050565b6001600160a01b03831661067057806002600082825461066591906108e7565b909155506106fb9050565b6001600160a01b038316600090815260208190526040902054818110156106dc576040517fe450d38c0000000000000000000000000000000000000000000000000000000081526001600160a01b038516600482015260248101829052604481018390526064016103d0565b6001600160a01b03841660009081526020819052604090209082900390555b6001600160a01b03821661071757600280548290039055610736565b6001600160a01b03821660009081526020819052604090208054820190555b816001600160a01b0316836001600160a01b03167fddf252ad1be2c89b69c2b068fc378daa952ba7f163c4a11628f55a4df523b3ef8360405161077b91815260200190565b60405180910390a3505050565b600060208083528351808285015260005b818110156107b557858101830151858201604001528201610799565b506000604082860101526040601f19601f8301168501019250505092915050565b80356001600160a01b03811681146107ed57600080fd5b919050565b6000806040838503121561080557600080fd5b61080e836107d6565b946020939093013593505050565b60008060006060848603121561083157600080fd5b61083a846107d6565b9250610848602085016107d6565b9150604084013590509250925092565b60006020828403121561086a57600080fd5b610873826107d6565b9392505050565b6000806040838503121561088d57600080fd5b610896836107d6565b91506108a4602084016107d6565b90509250929050565b600181811c908216806108c157607f821691505b6020821081036108e157634e487b7160e01b600052602260045260246000fd5b50919050565b808201808211156102b957634e487b7160e01b600052601160045260246000fdfea264697066735822122032366c45038431641bb5cb52c7e79354db1e34a3f52cd72f894725ee51e6cfc264736f6c63430008140033a2646970667358221220b09f437fb3e7ef59adb055b4837fb1b36583a0f383fe147c2fa64f78da16973064736f6c63430008140033",
  "linkReferences": {},
  "deployedLinkReferences": {}
}